:100000000EC0B1C0AFC011C010C00FC00EC00DC037
:100010000CC00BC00AC009C0A4C007C006C0112490
:100020001FBECFEDCDBFE0D0F8C0EACF91E09A95EA
:10003000F1F708950895B39BFECFA894089508950D
:10004000B998BB98C19AC39A88279927B19B0895FC
:10005000B39B089581E0089581E00895B39BEBDFA1
:10006000C198B99AE3DF11D0089581E00895C3984B
:10007000BB9AC198B99ADADFBB98C39AD7DFB39B12
:10008000DADFB998C19AD2DF08950894881F01C0B9
:10009000880FD9F0C398BB9A00000000000020F43C
:1000A0000000B998C19A03C0C198B99A00C0BEDFD8
:1000B000BB98C39AA894000000000000B39BBBDF6C
:1000C00012F4882715C0B2DFE3CFC398BB9A0000B3
:1000D0000000B998C19AAADF99278827BB98C39ACC
:1000E000A8940000B39BA7DF62F3B19B81E09EDF81
:1000F00000000000C398BB9A089581E00895811123
:10010000C49ABC9A0895BC98C4980895CF93DF937D
:10011000D82FC62F84E6A2DF8D2FB7DF8C2FB5DF57
:10012000A6DFDF91CF910895CF93DF93C82FD92F0A
:10013000682F8BE0EBDF8C2F9D2F6FEF70E059D095
:100140008CE0E4DFDF91CF910895EEDF6AE38DE08C
:10015000DDDF089560E58FE0D9DF68E088E1D6DF74
:10016000089518951895189588E481BD889588E1BB
:1001700081BD11BC089589E481BD889588E181BD68
:1001800011BC0895C09A089596B3917096BB81E012
:10019000911180E00895C29A87E893E10197F1F701
:1001A00000C000008BB780628BBF85B7806285BFBF
:1001B00085B7877E806185BFC09A42DFCBDF82E052
:1001C00090E0C3DF7894DEDF0895C0E0D1E010E076
:1001D0008C2F95DFC9DFCFDF96DFC6DFCCDF8D2F19
:1001E000C111812FC82FF4CFD6DFCEDF8823E9F3EA
:1001F000ECDFAA1BBB1B51E107C0AA1FBB1FA61740
:10020000B70710F0A61BB70B881F991F5A95A9F7BF
:0E02100080959095BC01CD010895F894FFCF24
:00000001FF
