:100000000EC0A1C09FC011C010C00FC00EC00DC057
:100010000CC00BC00AC009C094C007C006C01124A0
:100020001FBECFEDCDBFAED0BEC0EACF91E09A9556
:10003000F1F708950895B39BFECFA894089508950D
:10004000B998BB98C19AC39A88279927B19B0895FC
:10005000B39B089581E0089581E00895B39BEBDFA1
:10006000C198B99AE3DF11D0089581E00895C3984B
:10007000BB9AC198B99ADADFBB98C39AD7DFB39B12
:10008000DADFB998C19AD2DF08950894881F01C0B9
:10009000880FD9F0C398BB9A00000000000020F43C
:1000A0000000B998C19A03C0C198B99A00C0BEDFD8
:1000B000BB98C39AA894000000000000B39BBBDF6C
:1000C00012F4882715C0B2DFE3CFC398BB9A0000B3
:1000D0000000B998C19AAADF99278827BB98C39ACC
:1000E000A8940000B39BA7DF62F3B19B81E09EDF81
:1000F00000000000C398BB9A089581E00895811123
:10010000C49ABC9A0895BC98C4980895CF93DF937D
:10011000D82FC62F84E6A2DF8D2FB7DF8C2FB5DF57
:10012000A6DFDF91CF91089562E08BE0EFDF60E022
:100130008CE0ECDF60E58FE0E9DF6AE38DE0E6DF8D
:10014000089518951895189588E481BD889588E1DB
:1001500081BD11BC089589E481BD889588E181BD88
:1001600011BC0895C29A8BB780628BBF85B780623D
:1001700085BF85B7877E806185BF7894C09A60DF30
:10018000D3DF0895EFDFC0E0AA98A29AC2988C2F1F
:10019000B6DFDADFC29ADFDFB6DFA298AA9ACF5FB6
:0A01A000C23091F7F0CFF894FFCFC2
:00000001FF
