:100000000EC0A2C0A0C011C010C00FC00EC00DC055
:100010000CC00BC00AC009C095C007C006C011249F
:100020001FBECFEDCDBFB1D0BEC0EACF91E09A9553
:10003000F1F708950895B39BFECFA894089508950D
:10004000B998BB98C19AC39A88279927B19B0895FC
:10005000B39B089581E0089581E00895B39BEBDFA1
:10006000C198B99AE3DF11D0089581E00895C3984B
:10007000BB9AC198B99ADADFBB98C39AD7DFB39B12
:10008000DADFB998C19AD2DF08950894881F01C0B9
:10009000880FD9F0C398BB9A00000000000020F43C
:1000A0000000B998C19A03C0C198B99A00C0BEDFD8
:1000B000BB98C39AA894000000000000B39BBBDF6C
:1000C00012F4882715C0B2DFE3CFC398BB9A0000B3
:1000D0000000B998C19AAADF99278827BB98C39ACC
:1000E000A8940000B39BA7DF62F3B19B81E09EDF81
:1000F00000000000C398BB9A089581E00895C49A57
:10010000BC9A0895BC9A0895BC98C4980895CF935A
:10011000DF93D82FC62F84E6A1DF8D2FB6DF8C2F7B
:10012000B4DFA5DFDF91CF91089562E08BE0EFDFD0
:1001300060E08CE0ECDF60E58FE0E9DF6AE38DE012
:10014000E6DF089518951895189588E481BD88957F
:1001500088E181BD11BC089589E481BD889588E15D
:1001600081BD11BC0895C29A80E28BBF84E085BB3B
:1001700085B7806285BF85B7877E806185BF7894AB
:10018000A49AC09A5DDFD1DF0895EDDFC298B7DF92
:10019000DCDFC29AE1DFB8DFC298B4DFD6DFC29AF3
:0A01A000DBDFB2DFF3CFF894FFCFEE
:00000001FF
