:100000000EC0AEC0AEC011C010C00FC00EC00DC03B
:100010000CC00BC00AC009C0A2C007C006C0112492
:100020001FBECFEDCDBF9ED042C1EACF80E886BDD6
:1000300016BC089592E39A95F1F708950895B39B3D
:10004000FECFA89408950895B998BB98C19AC39A11
:1000500088279927B19B0895B39B089581E008955F
:1000600081E00895B39BEBDFC198B99AE3DF11D02B
:10007000089581E00895C398BB9AC198B99ADADFD0
:10008000BB98C39AD7DFB39BDADFB998C19AD2DFA6
:1000900008950894881F01C0880FD9F0C398BB9AAF
:1000A00000000000000020F40000B998C19A03C0CD
:1000B000C198B99A00C0BEDFBB98C39AA89400004B
:1000C00000000000B39BBBDF12F4882715C0B2DF2D
:1000D000E3CFC398BB9A00000000B998C19AAADF89
:1000E00099278827BB98C39AA8940000B39BA7DFE1
:1000F00062F3B19B81E09EDF00000000C398BB9AD1
:10010000089581E00895CF93DF93D82FC62F84E61A
:10011000A9DF8D2FBEDF8C2FBCDFADDFDF91CF914C
:10012000089562E18DE0EFDF089561E18DE0EBDF9E
:10013000089560E08DE0E7DF0895CF93C92F682F21
:100140008BE0E1DF6C2F8CE0DEDFCF910895F1DFF3
:1001500060E58FE0D8DF68E088E1D5DF0895189585
:100160001895189563DFC09AC29AC09AA49A6CDF5A
:100170008FE19EE40197F1F700C00000E8DF85B74A
:10018000806285BF85B7877E806185BF8BB78062BF
:100190008BBFA89A7894B09903C08895B09BFDCF87
:1001A000B09B03C08895B099FDCF9FE728E381E01D
:1001B000915020408040E1F700C00000B09903C09A
:1001C0008895B09BFDCFA89884E090E0B6DFADDFC6
:1001D00024E833E080E4AA9A8895C298AA98C49A41
:1001E000BC9A81BD889511BCC29A81BD889511BC0D
:1001F000AA9A8895C298AA98BC98C49881BD8895F7
:1002000011BCC29A81BD889511BCAA9A8895C298E2
:10021000AA98C498BC9A81BD889511BCC29A81BD28
:10022000889511BCAA9A8895C298AA98BC98C49837
:1002300081BD889511BCC29A81BD889511BC2150A1
:10024000310909F0C8CF75DFA89AB09B03C0889523
:10025000B099FDCFA898C098B89A88E190E06DDF7A
:1002600060DF80E4AA9A8895C298AA98C49ABC9A3A
:1002700081BD889511BCC29A81BD889511BC81BD94
:10028000889511BCBC98C498AA9A8895C298AA98D7
:10029000C498BC9A81BD889511BCC29A81BD8895CD
:1002A00011BC81BD889511BCBC98C498DBCFF89473
:0202B000FFCF7E
:00000001FF
