:100000000EC0AEC0ACC011C010C00FC00EC00DC03D
:100010000CC00BC00AC009C0A1C007C006C0112493
:100020001FBECFEDCDBFC5D0F9C0EACF91E09A9504
:10003000F1F708950895B39BFECFA894089508950D
:10004000B998BB98C19AC39A88279927B19B0895FC
:10005000B39B089581E0089581E00895B39BEBDFA1
:10006000C198B99AE3DF11D0089581E00895C3984B
:10007000BB9AC198B99ADADFBB98C39AD7DFB39B12
:10008000DADFB998C19AD2DF08950894881F01C0B9
:10009000880FD9F0C398BB9A00000000000020F43C
:1000A0000000B998C19A03C0C198B99A00C0BEDFD8
:1000B000BB98C39AA894000000000000B39BBBDF6C
:1000C00012F4882715C0B2DFE3CFC398BB9A0000B3
:1000D0000000B998C19AAADF99278827BB98C39ACC
:1000E000A8940000B39BA7DF62F3B19B81E09EDF81
:1000F00000000000C398BB9A089581E00895CF9353
:10010000DF93D82FC62F84E6A9DF8D2FBEDF8C2F7B
:10011000BCDFADDFDF91CF91089560E08DE0EFDFD0
:10012000089562E18DE0EBDF0895CF93DF93C82F50
:10013000D92F682F8BE0E3DF8C2F9D2F6FEF70E0BE
:1001400059D08CE0DCDFDF91CF910895E6DF60E5E8
:100150008FE0D5DF68E088E1D2DF08951895189523
:10016000189528E488E199E48895C298AA98A29AFB
:10017000C49ABC9A21BD889581BD11BCC29A91BD1B
:10018000889581BD11BCBC98C498A298AA9A8895FC
:10019000C298AA98A29ABC9A21BD889581BD11BC2B
:1001A000C29A91BD889581BD11BCBC98A298AA9AAB
:1001B000DBCFC09AC29AC09A43DF83EC99E00197E3
:1001C000F1F700C000008BB780628BBF7894BEDF70
:1001D000AA9A85B7806285BF85B7877E806185BF13
:1001E00081E090E0A2DFA89A8895A898C098B89A74
:1001F00098DFB7DFAA1BBB1B51E107C0AA1FBB1FBB
:10020000A617B70710F0A61BB70B881F991F5A95A2
:10021000A9F780959095BC01CD010895F894FFCF82
:00000001FF
