:100000000EC0B1C0AFC011C010C00FC00EC00DC037
:100010000CC00BC00AC009C0A4C007C006C0112490
:100020001FBECFEDCDBFE3D019C1EACF91E09A95C5
:10003000F1F708950895B39BFECFA894089508950D
:10004000B998BB98C19AC39A88279927B19B0895FC
:10005000B39B089581E0089581E00895B39BEBDFA1
:10006000C198B99AE3DF11D0089581E00895C3984B
:10007000BB9AC198B99ADADFBB98C39AD7DFB39B12
:10008000DADFB998C19AD2DF08950894881F01C0B9
:10009000880FD9F0C398BB9A00000000000020F43C
:1000A0000000B998C19A03C0C198B99A00C0BEDFD8
:1000B000BB98C39AA894000000000000B39BBBDF6C
:1000C00012F4882715C0B2DFE3CFC398BB9A0000B3
:1000D0000000B998C19AAADF99278827BB98C39ACC
:1000E000A8940000B39BA7DF62F3B19B81E09EDF81
:1000F00000000000C398BB9A089581E00895811123
:10010000C49ABC9A0895BC98C4980895CF93DF937D
:10011000D82FC62F84E6A2DF8D2FB7DF8C2FB5DF57
:10012000A6DFDF91CF910895CF93DF93C82FD92F0A
:10013000682F8BE0EBDF8C2F9D2F6FEF70E07AD074
:100140008CE0E4DFDF91CF910895EEDF6AE38DE08C
:10015000DDDF089560E58FE0D9DF68E088E1D6DF74
:10016000089518951895189588E481BD889588E1BB
:1001700081BD11BC089589E481BD889588E181BD68
:1001800011BC0895FF920F931F93CF93DF930097B5
:1001900091F0EC0110E001E0F12C812FB0DFE4DF01
:1001A000EADFB1DFE1DFE7DF802F11118F2D182F9C
:1001B000219799F701C010E0812FDF91CF911F9116
:1001C0000F91FF900895C0E0D1E010E08895C298AB
:1001D000AA98A29A8C2F93DF8D2FC111812FC82F3F
:1001E000C3DFC29AC8DF8FDFA298AA9AEFCFC09A66
:1001F000C29AB89A25DF83EC99E00197F1F700C025
:1002000000008BB780628BBF789485B7806285BF12
:1002100085B7877E806185BFA89A8895A898C09881
:10022000B89A88E097E0AEDFAA9A94DF84EC92E077
:100230008CDFC9DFAA1BBB1B51E107C0AA1FBB1F74
:10024000A617B70710F0A61BB70B881F991F5A9562
:10025000A9F780959095BC01CD010895F894FFCF42
:00000001FF
