:100000000EC0BFC0BFC011C010C00FC00EC00DC019
:100010000CC00BC00AC009C0B3C007C006C0112481
:100020001FBECFEDCDBFECD0B9C1EACF80E090E0EC
:10003000A3D1089582E090E09FD1089584E090E0FC
:100040009BD1089586E090E097D1089580E886BD21
:1000500016BC089592E39A95F1F708950895B39B1D
:10006000FECFA89408950895B998BB98C19AC39AF1
:1000700088279927B19B0895B39B089581E008953F
:1000800081E00895B39BEBDFC198B99AE3DF11D00B
:10009000089581E00895C398BB9AC198B99ADADFB0
:1000A000BB98C39AD7DFB39BDADFB998C19AD2DF86
:1000B00008950894881F01C0880FD9F0C398BB9A8F
:1000C00000000000000020F40000B998C19A03C0AD
:1000D000C198B99A00C0BEDFBB98C39AA89400002B
:1000E00000000000B39BBBDF12F4882715C0B2DF0D
:1000F000E3CFC398BB9A00000000B998C19AAADF69
:1001000099278827BB98C39AA8940000B39BA7DFC0
:1001100062F3B19B81E09EDF00000000C398BB9AB0
:10012000089581E00895CF93DF93D82FC62F84E6FA
:10013000A9DF8D2FBEDF8C2FBCDFADDFDF91CF912C
:100140000895682F60618DE0EEDF089561E18DE034
:10015000EADF089560E08DE0E6DF0895CF93C92FD0
:10016000682F8BE0E0DF6C2F8CE0DDDFCF9108950E
:10017000F1DF60E58FE0D7DF68E088E1D4DF089544
:1001800018951895189545E0009769F120E030E042
:10019000C49ABC9AEFE2F5E73197F1F700C000008E
:1001A000BC98C498FFE758E361E0F15050406040CC
:1001B000E1F700C00000C498BC9AEFE2F5E7319780
:1001C000F1F700C00000BC98C498FFEF54E36CE066
:1001D000F15050406040E1F700C000002F5F3F4FFA
:1001E00082179307A9F67FEFEEE9F4E27150E04041
:1001F000F040E1F700C00000415031F6F8948895D6
:1002000025DFC09AC29AC09AA49A2EDF8FE19EE49D
:100210000197F1F700C00000ABDF85B7806285BFB2
:1002200085B7877E806185BF8BB780628BBFA89AB8
:100230007894FCDE8A349C4419F082E090E0A3DFDD
:10024000B09B03C0B09904C006C084E090E09BDF7F
:100250008895B099FDCF8FE798E321E081509040D9
:100260002040E1F700C00000B09903C08895B09B22
:10027000FDCFA89887E090E071DF68DFE3DEAC0196
:10028000892B09F42DC020E030E090E4AA9A8895EB
:10029000C298AA98C49ABC9A91BD889511BCC29A7A
:1002A00091BD889511BC91BD889511BCBC98C4982E
:1002B000AA9A8895C298AA98C498BC9A91BD889524
:1002C00011BCC29A91BD889511BC91BD889511BC95
:1002D000BC98C4982F5F3F4F4217530709F0D6CF01
:1002E00039DFA89AB09B03C08895B099FDCFA89834
:1002F000C098B89AA3DE32DF9DDE8130910551F0BF
:1003000030F08230910549F0039759F00DC081E03B
:1003100018DF05C081E015DF02C082E012DF80E453
:1003200006C083E00EDFFBCF83E090E02CDFAA9ACB
:100330008895C298AA98C49ABC9A81BD889511BC28
:10034000C29A81BD889511BC81BD889511BCBC98AD
:10035000C498AA9A8895C298AA98C498BC9A81BD54
:10036000889511BCC29A81BD889511BC81BD8895C4
:1003700011BCBC98C498DBCFA8E142E002C0A82F12
:10038000862FE82FE199FECF1FBA05C0EEBBE09A99
:10039000E3950DB20D924150C8F70895F894FFCF40
:00000001FF
