:100000000EC0BFC0BFC011C010C00FC00EC00DC019
:100010000CC00BC00AC009C0B3C007C006C0112481
:100020001FBECFEDCDBFF3D0CAC1EACF80E090E0D4
:10003000B4D1089582E090E0B0D1089584E090E0DA
:10004000ACD1089586E090E0A8D1089580E886BDFF
:1000500016BC089592E39A95F1F708950895B39B1D
:10006000FECFA89408950895B998BB98C19AC39AF1
:1000700088279927B19B0895B39B089581E008953F
:1000800081E00895B39BEBDFC198B99AE3DF11D00B
:10009000089581E00895C398BB9AC198B99ADADFB0
:1000A000BB98C39AD7DFB39BDADFB998C19AD2DF86
:1000B00008950894881F01C0880FD9F0C398BB9A8F
:1000C00000000000000020F40000B998C19A03C0AD
:1000D000C198B99A00C0BEDFBB98C39AA89400002B
:1000E00000000000B39BBBDF12F4882715C0B2DF0D
:1000F000E3CFC398BB9A00000000B998C19AAADF69
:1001000099278827BB98C39AA8940000B39BA7DFC0
:1001100062F3B19B81E09EDF00000000C398BB9AB0
:10012000089581E00895CF93DF93D82FC62F84E6FA
:10013000A9DF8D2FBEDF8C2FBCDFADDFDF91CF912C
:100140000895682F60618DE0EEDF089561E18DE034
:10015000EADF089560E08DE0E6DF0895CF93C92FD0
:10016000682F8BE0E0DF6C2F8CE0DDDFCF9108950E
:10017000F1DF60E58FE0D7DF68E088E1D4DF089544
:1001800018951895189545E0009799F120E030E012
:10019000C49ABC9A5FE768E371E0515060407040D8
:1001A000E1F700C00000BC98C4985FE768E371E025
:1001B000515060407040E1F700C00000C498BC9A04
:1001C0005FE768E371E0515060407040E1F700C0C4
:1001D0000000BC98C4985FEF64E37CE0515060403D
:1001E0007040E1F700C000002F5F3F4F8217930778
:1001F00079F62FEF3EE954E2215030405040E1F7CC
:1002000000C00000415009F0BFCFF89488951EDF70
:10021000C09AC29AA49A28DF8FE19EE40197F1F771
:1002200000C00000A5DF85B7806285BF85B7877EE7
:10023000806185BF8BB780628BBFA89A7894F6DE09
:100240008A349C4419F082E090E09DDFB09B03C0AB
:10025000B09904C006C084E090E095DF8895B0991D
:10026000FDCF8FE798E321E0815090402040E1F7F7
:1002700000C00000B09903C08895B09BFDCFA8983E
:1002800083E090E06BDF62DFDDDEAC01892B09F4F7
:1002900039C020E030E090E4AA9A8895C298AA98E4
:1002A000C49ABC9A91BD889511BCC29AB29BFECFEC
:1002B000AA9A8895C298AA98BC98C49891BD889526
:1002C00011BCC29AB29BFECFAA9A8895C298AA98EE
:1002D000C498BC9A91BD889511BCC29AB29BFECFBE
:1002E000AA9A8895C298AA98BC98C49891BD8895F6
:1002F00011BCC29AB29BFECF2F5F3F4F42175307EC
:1003000009F0CACF27DFA89AB09B03C08895B0999F
:10031000FDCFA898C098B89A91DE20DF8BDE81309F
:10032000910551F030F08230910549F0039761F06A
:100330000EC081E006DF05C081E003DF02C082E07D
:1003400000DF90E481E406C083E0FBDEFACF83E0C7
:1003500090E019DFAA9A8895C298AA98C49ABC9A84
:1003600091BD889511BCC29AB29BFECF81BD889584
:1003700011BCBC98C498AA9A8895C298AA98C498A7
:10038000BC9A91BD889511BCC29AB29BFECF81BD2B
:10039000889511BCBC98C498DDCFA8E142E002C0AA
:1003A000A82F862FE82FE199FECF1FBA05C0EEBB1C
:1003B000E09AE3950DB20D924150C8F70895F89474
:0203C000FFCF6D
:00000001FF
