:100000000EC0BBC0BBC011C010C00FC00EC00DC021
:100010000CC00BC00AC009C0AFC007C006C0112485
:100020001FBECFEDCDBFE4D0B7C1EACF80E090E0F6
:10003000A1D1089582E090E09DD1089584E090E000
:1000400099D1089580E886BD16BC089592E39A95EB
:10005000F1F708950895B39BFECFA89408950895ED
:10006000B998BB98C19AC39A88279927B19B0895DC
:10007000B39B089581E0089581E00895B39BEBDF81
:10008000C198B99AE3DF11D0089581E00895C3982B
:10009000BB9AC198B99ADADFBB98C39AD7DFB39BF2
:1000A000DADFB998C19AD2DF08950894881F01C099
:1000B000880FD9F0C398BB9A00000000000020F41C
:1000C0000000B998C19A03C0C198B99A00C0BEDFB8
:1000D000BB98C39AA894000000000000B39BBBDF4C
:1000E00012F4882715C0B2DFE3CFC398BB9A000093
:1000F0000000B998C19AAADF99278827BB98C39AAC
:10010000A8940000B39BA7DF62F3B19B81E09EDF60
:1001100000000000C398BB9A089581E00895CF9332
:10012000DF93D82FC62F84E6A9DF8D2FBEDF8C2F5B
:10013000BCDFADDFDF91CF910895682F60618DE066
:10014000EEDF089561E18DE0EADF089560E08DE083
:10015000E6DF0895CF93C92F682F8BE0E0DF6C2F87
:100160008CE0DDDFCF910895F1DF60E58FE0D7DF30
:1001700068E088E1D4DF08951895189518950097E0
:1001800069F120E030E0C49ABC9AEFE2F5E73197DC
:10019000F1F700C00000BC98C498FFE748E351E0C5
:1001A000F15040405040E1F700C00000C498BC9AB4
:1001B000EFE2F5E73197F1F700C00000BC98C49872
:1001C000FFEF44E35CE0F15040405040E1F700C0F5
:1001D00000002F5F3F4F82179307A9F66FEFEEE9FC
:1001E000F4E26150E040F040E1F700C00000C7CF0A
:1001F00029DFC09AC29AC09AA49A32DF8FE19EE4A6
:100200000197F1F700C00000AFDF85B7806285BFBE
:1002100085B7877E806185BF8BB780628BBFA89AC8
:10022000789404DF8A349C4419F082E090E0A7DFE0
:10023000B09B03C0B09904C006C084E090E09FDF8B
:100240008895B099FDCF8FE798E321E081509040E9
:100250002040E1F700C00000B09903C08895B09B32
:10026000FDCFA8986FDF24E833E080E4AA9A889550
:10027000C298AA98C49ABC9A81BD889511BCC29AAA
:1002800081BD889511BCAA9A8895C298AA98BC98F5
:10029000C49881BD889511BCC29A81BD889511BC56
:1002A000AA9A8895C298AA98C498BC9A81BD889544
:1002B00011BCC29A81BD889511BCAA9A8895C29832
:1002C000AA98BC98C49881BD889511BCC29A81BD7A
:1002D000889511BC2150310909F0C8CF37DFA89AA1
:1002E000B09B03C08895B099FDCFA898C098B89AE4
:1002F000A5DE30DF9FDE8130910551F030F0823095
:10030000910549F0039759F00DC081E016DF05C053
:1003100081E013DF02C082E010DF80E406C083E0EA
:100320000CDFFBCF83E090E02ADFAA9A8895C29881
:10033000AA98C49ABC9A81BD889511BCC29A81BD05
:10034000889511BC81BD889511BCBC98C498AA9AA7
:100350008895C298AA98C498BC9A81BD889511BC0A
:10036000C29A81BD889511BC81BD889511BCBC988D
:10037000C498DBCFA8E142E002C0A82F862FE82F67
:10038000E199FECF1FBA05C0EEBBE09AE3950DB22E
:0C0390000D924150C8F70895F894FFCF7B
:00000001FF
